{
  "contractName": "Crowdsale",
  "abi": [
    {
      "constant": true,
      "inputs": [],
      "name": "tierThreeRate",
      "outputs": [
        {
          "name": "",
          "type": "uint256"
        }
      ],
      "payable": false,
      "stateMutability": "view",
      "type": "function"
    },
    {
      "constant": true,
      "inputs": [],
      "name": "purchaserCount",
      "outputs": [
        {
          "name": "",
          "type": "uint256"
        }
      ],
      "payable": false,
      "stateMutability": "view",
      "type": "function"
    },
    {
      "constant": true,
      "inputs": [],
      "name": "baseRate",
      "outputs": [
        {
          "name": "",
          "type": "uint256"
        }
      ],
      "payable": false,
      "stateMutability": "view",
      "type": "function"
    },
    {
      "constant": true,
      "inputs": [],
      "name": "tierThreePurchase",
      "outputs": [
        {
          "name": "",
          "type": "uint256"
        }
      ],
      "payable": false,
      "stateMutability": "view",
      "type": "function"
    },
    {
      "constant": true,
      "inputs": [],
      "name": "endTime",
      "outputs": [
        {
          "name": "",
          "type": "uint256"
        }
      ],
      "payable": false,
      "stateMutability": "view",
      "type": "function"
    },
    {
      "constant": true,
      "inputs": [],
      "name": "cap",
      "outputs": [
        {
          "name": "",
          "type": "uint256"
        }
      ],
      "payable": false,
      "stateMutability": "view",
      "type": "function"
    },
    {
      "constant": true,
      "inputs": [],
      "name": "weiRaised",
      "outputs": [
        {
          "name": "",
          "type": "uint256"
        }
      ],
      "payable": false,
      "stateMutability": "view",
      "type": "function"
    },
    {
      "constant": true,
      "inputs": [],
      "name": "wallet",
      "outputs": [
        {
          "name": "",
          "type": "address"
        }
      ],
      "payable": false,
      "stateMutability": "view",
      "type": "function"
    },
    {
      "constant": false,
      "inputs": [],
      "name": "halt",
      "outputs": [],
      "payable": false,
      "stateMutability": "nonpayable",
      "type": "function"
    },
    {
      "constant": true,
      "inputs": [],
      "name": "tierTwoPurchase",
      "outputs": [
        {
          "name": "",
          "type": "uint256"
        }
      ],
      "payable": false,
      "stateMutability": "view",
      "type": "function"
    },
    {
      "constant": true,
      "inputs": [],
      "name": "presaleCap",
      "outputs": [
        {
          "name": "",
          "type": "uint256"
        }
      ],
      "payable": false,
      "stateMutability": "view",
      "type": "function"
    },
    {
      "constant": true,
      "inputs": [],
      "name": "startTime",
      "outputs": [
        {
          "name": "",
          "type": "uint256"
        }
      ],
      "payable": false,
      "stateMutability": "view",
      "type": "function"
    },
    {
      "constant": true,
      "inputs": [
        {
          "name": "",
          "type": "address"
        }
      ],
      "name": "purchasedAmountOf",
      "outputs": [
        {
          "name": "",
          "type": "uint256"
        }
      ],
      "payable": false,
      "stateMutability": "view",
      "type": "function"
    },
    {
      "constant": true,
      "inputs": [],
      "name": "isFinalized",
      "outputs": [
        {
          "name": "",
          "type": "bool"
        }
      ],
      "payable": false,
      "stateMutability": "view",
      "type": "function"
    },
    {
      "constant": true,
      "inputs": [],
      "name": "owner",
      "outputs": [
        {
          "name": "",
          "type": "address"
        }
      ],
      "payable": false,
      "stateMutability": "view",
      "type": "function"
    },
    {
      "constant": true,
      "inputs": [
        {
          "name": "",
          "type": "address"
        }
      ],
      "name": "tokenAmountOf",
      "outputs": [
        {
          "name": "",
          "type": "uint256"
        }
      ],
      "payable": false,
      "stateMutability": "view",
      "type": "function"
    },
    {
      "constant": true,
      "inputs": [
        {
          "name": "",
          "type": "address"
        }
      ],
      "name": "whitelist",
      "outputs": [
        {
          "name": "",
          "type": "bool"
        }
      ],
      "payable": false,
      "stateMutability": "view",
      "type": "function"
    },
    {
      "constant": true,
      "inputs": [],
      "name": "presaleStartTime",
      "outputs": [
        {
          "name": "",
          "type": "uint256"
        }
      ],
      "payable": false,
      "stateMutability": "view",
      "type": "function"
    },
    {
      "constant": true,
      "inputs": [],
      "name": "halted",
      "outputs": [
        {
          "name": "",
          "type": "bool"
        }
      ],
      "payable": false,
      "stateMutability": "view",
      "type": "function"
    },
    {
      "constant": false,
      "inputs": [],
      "name": "unhalt",
      "outputs": [],
      "payable": false,
      "stateMutability": "nonpayable",
      "type": "function"
    },
    {
      "constant": true,
      "inputs": [],
      "name": "whitelistRate",
      "outputs": [
        {
          "name": "",
          "type": "uint256"
        }
      ],
      "payable": false,
      "stateMutability": "view",
      "type": "function"
    },
    {
      "constant": true,
      "inputs": [],
      "name": "tierTwoRate",
      "outputs": [
        {
          "name": "",
          "type": "uint256"
        }
      ],
      "payable": false,
      "stateMutability": "view",
      "type": "function"
    },
    {
      "constant": true,
      "inputs": [],
      "name": "tierOnePurchase",
      "outputs": [
        {
          "name": "",
          "type": "uint256"
        }
      ],
      "payable": false,
      "stateMutability": "view",
      "type": "function"
    },
    {
      "constant": false,
      "inputs": [
        {
          "name": "newOwner",
          "type": "address"
        }
      ],
      "name": "transferOwnership",
      "outputs": [],
      "payable": false,
      "stateMutability": "nonpayable",
      "type": "function"
    },
    {
      "constant": true,
      "inputs": [],
      "name": "token",
      "outputs": [
        {
          "name": "",
          "type": "address"
        }
      ],
      "payable": false,
      "stateMutability": "view",
      "type": "function"
    },
    {
      "inputs": [
        {
          "name": "_presaleStartTime",
          "type": "uint256"
        },
        {
          "name": "_startTime",
          "type": "uint256"
        },
        {
          "name": "_endTime",
          "type": "uint256"
        },
        {
          "name": "_wallet",
          "type": "address"
        },
        {
          "name": "_token",
          "type": "address"
        }
      ],
      "payable": false,
      "stateMutability": "nonpayable",
      "type": "constructor"
    },
    {
      "payable": false,
      "stateMutability": "nonpayable",
      "type": "fallback"
    },
    {
      "anonymous": false,
      "inputs": [
        {
          "indexed": true,
          "name": "purchaser",
          "type": "address"
        },
        {
          "indexed": true,
          "name": "beneficiary",
          "type": "address"
        },
        {
          "indexed": false,
          "name": "value",
          "type": "uint256"
        },
        {
          "indexed": false,
          "name": "amount",
          "type": "uint256"
        }
      ],
      "name": "TokenPurchase",
      "type": "event"
    },
    {
      "anonymous": false,
      "inputs": [
        {
          "indexed": false,
          "name": "addr",
          "type": "address"
        },
        {
          "indexed": false,
          "name": "status",
          "type": "bool"
        }
      ],
      "name": "Whitelisted",
      "type": "event"
    },
    {
      "anonymous": false,
      "inputs": [
        {
          "indexed": false,
          "name": "newEndsAt",
          "type": "uint256"
        }
      ],
      "name": "EndsAtChanged",
      "type": "event"
    },
    {
      "anonymous": false,
      "inputs": [],
      "name": "Finalized",
      "type": "event"
    },
    {
      "constant": false,
      "inputs": [],
      "name": "buy",
      "outputs": [],
      "payable": true,
      "stateMutability": "payable",
      "type": "function"
    },
    {
      "constant": false,
      "inputs": [
        {
          "name": "beneficiary",
          "type": "address"
        }
      ],
      "name": "buyTokens",
      "outputs": [],
      "payable": true,
      "stateMutability": "payable",
      "type": "function"
    },
    {
      "constant": false,
      "inputs": [],
      "name": "finalize",
      "outputs": [],
      "payable": false,
      "stateMutability": "nonpayable",
      "type": "function"
    },
    {
      "constant": false,
      "inputs": [
        {
          "name": "_purchaser",
          "type": "address"
        },
        {
          "name": "_listed",
          "type": "bool"
        }
      ],
      "name": "updateWhitelist",
      "outputs": [],
      "payable": false,
      "stateMutability": "nonpayable",
      "type": "function"
    },
    {
      "constant": false,
      "inputs": [
        {
          "name": "time",
          "type": "uint256"
        }
      ],
      "name": "setEndsAt",
      "outputs": [],
      "payable": false,
      "stateMutability": "nonpayable",
      "type": "function"
    },
    {
      "constant": true,
      "inputs": [],
      "name": "hasEnded",
      "outputs": [
        {
          "name": "",
          "type": "bool"
        }
      ],
      "payable": false,
      "stateMutability": "view",
      "type": "function"
    },
    {
      "constant": true,
      "inputs": [],
      "name": "isPresale",
      "outputs": [
        {
          "name": "",
          "type": "bool"
        }
      ],
      "payable": false,
      "stateMutability": "view",
      "type": "function"
    }
  ],
  "bytecode": "0x6080604052600060055561048c60075561050e60085561055b6009556105b0600a55680410d586a20a4c0000600b55680821ab0d4414980000600c55681043561a8829300000600d556922435bb35ef7114c0000600f55691121add9af7b88a600006010556000601160006101000a81548160ff02191690831515021790555034801561008b57600080fd5b5060405160a080611e558339810180604052810190808051906020019092919080519060200190929190805190602001909291908051906020019092919080519060200190929190505050336000806101000a81548173ffffffffffffffffffffffffffffffffffffffff021916908373ffffffffffffffffffffffffffffffffffffffff16021790555042841015151561012557600080fd5b42851015801561013457508385105b151561013f57600080fd5b83831015151561014e57600080fd5b60008273ffffffffffffffffffffffffffffffffffffffff161415151561017457600080fd5b60008173ffffffffffffffffffffffffffffffffffffffff161415151561019a57600080fd5b80600160006101000a81548173ffffffffffffffffffffffffffffffffffffffff021916908373ffffffffffffffffffffffffffffffffffffffff16021790555081600660006101000a81548173ffffffffffffffffffffffffffffffffffffffff021916908373ffffffffffffffffffffffffffffffffffffffff1602179055508460028190555083600381905550826004819055505050505050611c10806102456000396000f300608060405260043610610196576000357c0100000000000000000000000000000000000000000000000000000000900463ffffffff1680630230d870146101a85780630d392cd9146101d35780631101eaaf146102225780631f68f20a1461024d5780632b3c7562146102785780633197cbb6146102a3578063355274ea146102ce5780634042b66f146102f95780634bb278f314610324578063521eb2731461033b5780635ed7ca5b146103925780636059838b146103a957806363d5502f146103d45780636e50eb3f146103ff57806378e979251461042c5780637d40e9e0146104575780638d4e4083146104ae5780638da5cb5b146104dd57806395364a841461053457806397b150ca146105635780639b19251a146105ba578063a6f2ae3a14610615578063a82524b21461061f578063b9b8af0b1461064a578063cb3e64fd14610679578063d3382a5514610690578063e309d1b5146106bb578063e6917e67146106e6578063ec8ac4d814610711578063ecb70fb714610747578063f2fde38b14610776578063fc0c546a146107b9575b3480156101a257600080fd5b50600080fd5b3480156101b457600080fd5b506101bd610810565b6040518082815260200191505060405180910390f35b3480156101df57600080fd5b50610220600480360381019080803573ffffffffffffffffffffffffffffffffffffffff169060200190929190803515159060200190929190505050610816565b005b34801561022e57600080fd5b5061023761093b565b6040518082815260200191505060405180910390f35b34801561025957600080fd5b50610262610941565b6040518082815260200191505060405180910390f35b34801561028457600080fd5b5061028d610947565b6040518082815260200191505060405180910390f35b3480156102af57600080fd5b506102b861094d565b6040518082815260200191505060405180910390f35b3480156102da57600080fd5b506102e3610953565b6040518082815260200191505060405180910390f35b34801561030557600080fd5b5061030e610959565b6040518082815260200191505060405180910390f35b34801561033057600080fd5b5061033961095f565b005b34801561034757600080fd5b50610350610a3a565b604051808273ffffffffffffffffffffffffffffffffffffffff1673ffffffffffffffffffffffffffffffffffffffff16815260200191505060405180910390f35b34801561039e57600080fd5b506103a7610a60565b005b3480156103b557600080fd5b506103be610ad8565b6040518082815260200191505060405180910390f35b3480156103e057600080fd5b506103e9610ade565b6040518082815260200191505060405180910390f35b34801561040b57600080fd5b5061042a60048036038101908080359060200190929190505050610ae4565b005b34801561043857600080fd5b50610441610b90565b6040518082815260200191505060405180910390f35b34801561046357600080fd5b50610498600480360381019080803573ffffffffffffffffffffffffffffffffffffffff169060200190929190505050610b96565b6040518082815260200191505060405180910390f35b3480156104ba57600080fd5b506104c3610bae565b604051808215151515815260200191505060405180910390f35b3480156104e957600080fd5b506104f2610bc1565b604051808273ffffffffffffffffffffffffffffffffffffffff1673ffffffffffffffffffffffffffffffffffffffff16815260200191505060405180910390f35b34801561054057600080fd5b50610549610be6565b604051808215151515815260200191505060405180910390f35b34801561056f57600080fd5b506105a4600480360381019080803573ffffffffffffffffffffffffffffffffffffffff169060200190929190505050610c05565b6040518082815260200191505060405180910390f35b3480156105c657600080fd5b506105fb600480360381019080803573ffffffffffffffffffffffffffffffffffffffff169060200190929190505050610c1d565b604051808215151515815260200191505060405180910390f35b61061d610c3d565b005b34801561062b57600080fd5b50610634610c48565b6040518082815260200191505060405180910390f35b34801561065657600080fd5b5061065f610c4e565b604051808215151515815260200191505060405180910390f35b34801561068557600080fd5b5061068e610c61565b005b34801561069c57600080fd5b506106a5610cf3565b6040518082815260200191505060405180910390f35b3480156106c757600080fd5b506106d0610cf9565b6040518082815260200191505060405180910390f35b3480156106f257600080fd5b506106fb610cff565b6040518082815260200191505060405180910390f35b610745600480360381019080803573ffffffffffffffffffffffffffffffffffffffff169060200190929190505050610d05565b005b34801561075357600080fd5b5061075c610da5565b604051808215151515815260200191505060405180910390f35b34801561078257600080fd5b506107b7600480360381019080803573ffffffffffffffffffffffffffffffffffffffff169060200190929190505050610dc5565b005b3480156107c557600080fd5b506107ce610e9f565b604051808273ffffffffffffffffffffffffffffffffffffffff1673ffffffffffffffffffffffffffffffffffffffff16815260200191505060405180910390f35b60095481565b6000809054906101000a900473ffffffffffffffffffffffffffffffffffffffff1673ffffffffffffffffffffffffffffffffffffffff163373ffffffffffffffffffffffffffffffffffffffff1614151561087157600080fd5b80601460008473ffffffffffffffffffffffffffffffffffffffff1673ffffffffffffffffffffffffffffffffffffffff16815260200190815260200160002060006101000a81548160ff0219169083151502179055507fa54714518c5d275fdcd3d2a461e4858e4e8cb04fb93cd0bca9d6d34115f264408282604051808373ffffffffffffffffffffffffffffffffffffffff1673ffffffffffffffffffffffffffffffffffffffff168152602001821515151581526020019250505060405180910390a15050565b60055481565b60075481565b600d5481565b60045481565b600f5481565b600e5481565b6000809054906101000a900473ffffffffffffffffffffffffffffffffffffffff1673ffffffffffffffffffffffffffffffffffffffff163373ffffffffffffffffffffffffffffffffffffffff161415156109ba57600080fd5b601160009054906101000a900460ff161515156109d657600080fd5b6109de610da5565b15156109e957600080fd5b6109f1610ec5565b7f6823b073d48d6e3a7d385eeb601452d680e74bb46afe3255a7d778f3a9b1768160405160405180910390a16001601160006101000a81548160ff021916908315150217905550565b600660009054906101000a900473ffffffffffffffffffffffffffffffffffffffff1681565b6000809054906101000a900473ffffffffffffffffffffffffffffffffffffffff1673ffffffffffffffffffffffffffffffffffffffff163373ffffffffffffffffffffffffffffffffffffffff16141515610abb57600080fd5b6001600060146101000a81548160ff021916908315150217905550565b600c5481565b60105481565b6000809054906101000a900473ffffffffffffffffffffffffffffffffffffffff1673ffffffffffffffffffffffffffffffffffffffff163373ffffffffffffffffffffffffffffffffffffffff16141515610b3f57600080fd5b8042101515610b4d57600080fd5b806004819055507fd34bb772c4ae9baa99db852f622773b31c7827e8ee818449fef20d30980bd3106004546040518082815260200191505060405180910390a150565b60035481565b60126020528060005260406000206000915090505481565b601160009054906101000a900460ff1681565b6000809054906101000a900473ffffffffffffffffffffffffffffffffffffffff1681565b6000806002544210158015610bfc575060035442105b90508091505090565b60136020528060005260406000206000915090505481565b60146020528060005260406000206000915054906101000a900460ff1681565b610c4633610d05565b565b60025481565b600060149054906101000a900460ff1681565b6000809054906101000a900473ffffffffffffffffffffffffffffffffffffffff1673ffffffffffffffffffffffffffffffffffffffff163373ffffffffffffffffffffffffffffffffffffffff16141515610cbc57600080fd5b600060149054906101000a900460ff161515610cd757600080fd5b60008060146101000a81548160ff021916908315150217905550565b600a5481565b60085481565b600b5481565b600060149054906101000a900460ff16151515610d2157600080fd5b60008173ffffffffffffffffffffffffffffffffffffffff1614151515610d4757600080fd5b60003414151515610d5757600080fd5b610d5f610be6565b15610d8557610d6c611308565b1515610d7757600080fd5b610d8081611396565b610da2565b610d8d61178f565b1515610d9857600080fd5b610da1816117d7565b5b50565b600080600f54600e5410159050600454421180610dbf5750805b91505090565b6000809054906101000a900473ffffffffffffffffffffffffffffffffffffffff1673ffffffffffffffffffffffffffffffffffffffff163373ffffffffffffffffffffffffffffffffffffffff16141515610e2057600080fd5b600073ffffffffffffffffffffffffffffffffffffffff168173ffffffffffffffffffffffffffffffffffffffff1614151515610e5c57600080fd5b806000806101000a81548173ffffffffffffffffffffffffffffffffffffffff021916908373ffffffffffffffffffffffffffffffffffffffff16021790555050565b600160009054906101000a900473ffffffffffffffffffffffffffffffffffffffff1681565b6000806b0103ddcfe187695505e400009150610faa600160009054906101000a900473ffffffffffffffffffffffffffffffffffffffff1673ffffffffffffffffffffffffffffffffffffffff166318160ddd6040518163ffffffff167c0100000000000000000000000000000000000000000000000000000000028152600401602060405180830381600087803b158015610f6057600080fd5b505af1158015610f74573d6000803e3d6000fd5b505050506040513d6020811015610f8a57600080fd5b810190808051906020019092919050505083611b0f90919063ffffffff16565b9050600160009054906101000a900473ffffffffffffffffffffffffffffffffffffffff1673ffffffffffffffffffffffffffffffffffffffff166340c10f19600660009054906101000a900473ffffffffffffffffffffffffffffffffffffffff16836040518363ffffffff167c0100000000000000000000000000000000000000000000000000000000028152600401808373ffffffffffffffffffffffffffffffffffffffff1673ffffffffffffffffffffffffffffffffffffffff16815260200182815260200192505050602060405180830381600087803b15801561109357600080fd5b505af11580156110a7573d6000803e3d6000fd5b505050506040513d60208110156110bd57600080fd5b810190808051906020019092919050505050600160009054906101000a900473ffffffffffffffffffffffffffffffffffffffff1673ffffffffffffffffffffffffffffffffffffffff16637d64bcb46040518163ffffffff167c0100000000000000000000000000000000000000000000000000000000028152600401602060405180830381600087803b15801561115557600080fd5b505af1158015611169573d6000803e3d6000fd5b505050506040513d602081101561117f57600080fd5b810190808051906020019092919050505050600160009054906101000a900473ffffffffffffffffffffffffffffffffffffffff1673ffffffffffffffffffffffffffffffffffffffff1663f2fde38b336040518263ffffffff167c0100000000000000000000000000000000000000000000000000000000028152600401808273ffffffffffffffffffffffffffffffffffffffff1673ffffffffffffffffffffffffffffffffffffffff168152602001915050600060405180830381600087803b15801561124e57600080fd5b505af1158015611262573d6000803e3d6000fd5b50505050600160009054906101000a900473ffffffffffffffffffffffffffffffffffffffff1673ffffffffffffffffffffffffffffffffffffffff16635f412d4f6040518163ffffffff167c0100000000000000000000000000000000000000000000000000000000028152600401600060405180830381600087803b1580156112ec57600080fd5b505af1158015611300573d6000803e3d6000fd5b505050505050565b600080600034600b541115806113675750601460003373ffffffffffffffffffffffffffffffffffffffff1673ffffffffffffffffffffffffffffffffffffffff16815260200190815260200160002060009054906101000a900460ff165b915060105461138134600e54611b2890919063ffffffff16565b1115905081801561138f5750805b9250505090565b60008034915060009050601460003373ffffffffffffffffffffffffffffffffffffffff1673ffffffffffffffffffffffffffffffffffffffff16815260200190815260200160002060009054906101000a900460ff161561140e57611407600a5483611b4690919063ffffffff16565b9050611474565b600c548210156114345761142d60075483611b4690919063ffffffff16565b9050611473565b600d5482101561145a5761145360085483611b4690919063ffffffff16565b9050611472565b61146f60095483611b4690919063ffffffff16565b90505b5b5b61148982600e54611b2890919063ffffffff16565b600e819055506000601260003373ffffffffffffffffffffffffffffffffffffffff1673ffffffffffffffffffffffffffffffffffffffff1681526020019081526020016000205414156114ea576005600081548092919060010191905055505b61153c34601260003373ffffffffffffffffffffffffffffffffffffffff1673ffffffffffffffffffffffffffffffffffffffff16815260200190815260200160002054611b2890919063ffffffff16565b601260003373ffffffffffffffffffffffffffffffffffffffff1673ffffffffffffffffffffffffffffffffffffffff168152602001908152602001600020819055506115d181601360003373ffffffffffffffffffffffffffffffffffffffff1673ffffffffffffffffffffffffffffffffffffffff16815260200190815260200160002054611b2890919063ffffffff16565b601360003373ffffffffffffffffffffffffffffffffffffffff1673ffffffffffffffffffffffffffffffffffffffff16815260200190815260200160002081905550600160009054906101000a900473ffffffffffffffffffffffffffffffffffffffff1673ffffffffffffffffffffffffffffffffffffffff166340c10f1984836040518363ffffffff167c0100000000000000000000000000000000000000000000000000000000028152600401808373ffffffffffffffffffffffffffffffffffffffff1673ffffffffffffffffffffffffffffffffffffffff16815260200182815260200192505050602060405180830381600087803b1580156116d957600080fd5b505af11580156116ed573d6000803e3d6000fd5b505050506040513d602081101561170357600080fd5b8101908080519060200190929190505050508273ffffffffffffffffffffffffffffffffffffffff163373ffffffffffffffffffffffffffffffffffffffff167f623b3804fa71d67900d064613da8f94b9617215ee90799290593e1745087ad188484604051808381526020018281526020019250505060405180910390a361178a611b79565b505050565b600080600060035442101580156117a857506004544211155b9150600f546117c234600e54611b2890919063ffffffff16565b111590508180156117d05750805b9250505090565b6000803491506117f260075483611b4690919063ffffffff16565b905061180982600e54611b2890919063ffffffff16565b600e819055506000601260003373ffffffffffffffffffffffffffffffffffffffff1673ffffffffffffffffffffffffffffffffffffffff16815260200190815260200160002054141561186a576005600081548092919060010191905055505b6118bc34601260003373ffffffffffffffffffffffffffffffffffffffff1673ffffffffffffffffffffffffffffffffffffffff16815260200190815260200160002054611b2890919063ffffffff16565b601260003373ffffffffffffffffffffffffffffffffffffffff1673ffffffffffffffffffffffffffffffffffffffff1681526020019081526020016000208190555061195181601360003373ffffffffffffffffffffffffffffffffffffffff1673ffffffffffffffffffffffffffffffffffffffff16815260200190815260200160002054611b2890919063ffffffff16565b601360003373ffffffffffffffffffffffffffffffffffffffff1673ffffffffffffffffffffffffffffffffffffffff16815260200190815260200160002081905550600160009054906101000a900473ffffffffffffffffffffffffffffffffffffffff1673ffffffffffffffffffffffffffffffffffffffff166340c10f1984836040518363ffffffff167c0100000000000000000000000000000000000000000000000000000000028152600401808373ffffffffffffffffffffffffffffffffffffffff1673ffffffffffffffffffffffffffffffffffffffff16815260200182815260200192505050602060405180830381600087803b158015611a5957600080fd5b505af1158015611a6d573d6000803e3d6000fd5b505050506040513d6020811015611a8357600080fd5b8101908080519060200190929190505050508273ffffffffffffffffffffffffffffffffffffffff163373ffffffffffffffffffffffffffffffffffffffff167f623b3804fa71d67900d064613da8f94b9617215ee90799290593e1745087ad188484604051808381526020018281526020019250505060405180910390a3611b0a611b79565b505050565b6000828211151515611b1d57fe5b818303905092915050565b6000808284019050838110151515611b3c57fe5b8091505092915050565b60008082840290506000841480611b675750828482811515611b6457fe5b04145b1515611b6f57fe5b8091505092915050565b600660009054906101000a900473ffffffffffffffffffffffffffffffffffffffff1673ffffffffffffffffffffffffffffffffffffffff166108fc349081150290604051600060405180830381858888f19350505050158015611be1573d6000803e3d6000fd5b505600a165627a7a72305820a3995435ace6a5f11b0a1bc65604608b853d8b10be41bf66e8b960da19a263160029",
  "source": "pragma solidity ^0.4.13;\n\nimport './MatryxToken.sol';\nimport './math/SafeMath.sol';\nimport './Haltable.sol';\nimport './ownership/Ownable.sol';\n\n/**\n * @title Crowdsale\n * Matryx crowdsale contract based on Open Zeppelin and TokenMarket\n * This crowdsale is modified to have a presale time period\n * A whitelist function is added to allow discounts. There are\n * three tiers of tokens purchased per wei based on msg value.\n * A finalization function can be called by the owner to issue \n * Matryx reserves, close minting, and transfer token ownership \n * away from the crowdsale and back to the owner.\n */\ncontract Crowdsale is Ownable, Haltable {\n  using SafeMath for uint256;\n\n  // The token being sold\n  MatryxToken public token;\n\n  // presale, start and end timestamps where investments are allowed\n  uint256 public presaleStartTime;\n  uint256 public startTime;\n  uint256 public endTime;\n\n  // How many distinct addresses have purchased\n  uint public purchaserCount = 0;\n\n  // address where funds are collected\n  address public wallet;\n\n  // how many token units a buyer gets per ether\n  uint256 public baseRate = 1164;\n\n  // how many token units a buyer gets per ether with tier 2 10% discount\n  uint256 public tierTwoRate = 1294;\n\n  // how many token units a buyer gets per ether with tier 3 15% discount\n  uint256 public tierThreeRate = 1371;\n\n  // how many token units a buyer gets per ether with a whitelisted 20% discount\n  uint256 public whitelistRate = 1456;\n\n  // the minimimum presale purchase amount in ether\n  uint256 public tierOnePurchase = 75 * 10**18;\n\n  // the second tier discount presale purchase amount in ether\n  uint256 public tierTwoPurchase = 150 * 10**18;\n\n  // the second tier discount presale purchase amount in ether\n  uint256 public tierThreePurchase = 300 * 10**18;\n\n  // amount of raised money in wei\n  uint256 public weiRaised;\n\n  // Total amount to be sold in ether\n  uint256 public cap = 161803 * 10**18;\n\n  // Total amount to be sold in the presale in. cap/2\n  uint256 public presaleCap = 809015 * 10**17;\n\n  // Is the contract finalized\n  bool public isFinalized = false;\n\n  // How much ETH each address has invested to this crowdsale\n  mapping (address => uint256) public purchasedAmountOf;\n\n  // How many tokens this crowdsale has credited for each investor address\n  mapping (address => uint256) public tokenAmountOf;\n\n  // Addresses of whitelisted presale investors.\n  mapping (address => bool) public whitelist;\n\n  /**\n   * event for token purchase logging\n   * @param purchaser who paid for the tokens\n   * @param beneficiary who got the tokens\n   * @param value weis paid for purchase\n   * @param amount amount of tokens purchased\n   */ \n  event TokenPurchase(address indexed purchaser, address indexed beneficiary, uint256 value, uint256 amount);\n\n  // Address early participation whitelist status changed\n  event Whitelisted(address addr, bool status);\n\n  // Crowdsale end time has been changed\n  event EndsAtChanged(uint newEndsAt);\n\n  event Finalized();\n\n  function Crowdsale(uint256 _presaleStartTime, uint256 _startTime, uint256 _endTime, address _wallet, address _token) {\n    require(_startTime >= now);\n    require(_presaleStartTime >= now && _presaleStartTime < _startTime);\n    require(_endTime >= _startTime);\n    require(_wallet != 0x0);\n    require(_token != 0x0);\n\n    token = MatryxToken(_token);\n    wallet = _wallet;\n    presaleStartTime = _presaleStartTime;\n    startTime = _startTime;\n    endTime = _endTime;\n  }\n\n  // fallback function can't accept ether\n  function () {\n    throw;\n  }\n\n  // default buy function\n  function buy() public payable {\n    buyTokens(msg.sender);\n  }\n  \n  // low level token purchase function\n  // owner may halt payments here\n  function buyTokens(address beneficiary) stopInEmergency payable {\n    require(beneficiary != 0x0);\n    require(msg.value != 0);\n    \n    if(isPresale()) {\n      require(validPrePurchase());\n      buyPresale(beneficiary);\n    } else {\n      require(validPurchase());\n      buySale(beneficiary);\n    }\n  }\n\n  function buyPresale(address beneficiary) internal {\n    uint256 weiAmount = msg.value;\n    uint256 tokens = 0;\n    \n    // calculate discount\n    if(whitelist[msg.sender]) {\n      tokens = weiAmount.mul(whitelistRate);\n    } else if(weiAmount < tierTwoPurchase) {\n      // Not whitelisted so they must have sent over 75 ether \n      tokens = weiAmount.mul(baseRate);\n    } else if(weiAmount < tierThreePurchase) {\n      // Over 150 ether was sent\n      tokens = weiAmount.mul(tierTwoRate);\n    } else {\n      // Over 300 ether was sent\n      tokens = weiAmount.mul(tierThreeRate);\n    }\n\n    // update state\n    weiRaised = weiRaised.add(weiAmount);\n\n    // Update purchaser\n    if(purchasedAmountOf[msg.sender] == 0) purchaserCount++;\n    purchasedAmountOf[msg.sender] = purchasedAmountOf[msg.sender].add(msg.value);\n    tokenAmountOf[msg.sender] = tokenAmountOf[msg.sender].add(tokens);\n\n    token.mint(beneficiary, tokens);\n\n    TokenPurchase(msg.sender, beneficiary, weiAmount, tokens);\n\n    forwardFunds();\n  }\n\n  function buySale(address beneficiary) internal {\n    uint256 weiAmount = msg.value;\n\n    // calculate token amount to be created\n    uint256 tokens = weiAmount.mul(baseRate);\n\n    // update state\n    weiRaised = weiRaised.add(weiAmount);\n\n    // Update purchaser\n    if(purchasedAmountOf[msg.sender] == 0) purchaserCount++;\n    purchasedAmountOf[msg.sender] = purchasedAmountOf[msg.sender].add(msg.value);\n    tokenAmountOf[msg.sender] = tokenAmountOf[msg.sender].add(tokens);\n\n    token.mint(beneficiary, tokens);\n\n    TokenPurchase(msg.sender, beneficiary, weiAmount, tokens);\n\n    forwardFunds();\n  }\n\n  /**\n   * @dev Must be called after crowdsale ends, to do some extra finalization\n   * work. Calls the contract's finalization function.\n   */\n  function finalize() onlyOwner {\n    require(!isFinalized);\n    require(hasEnded());\n\n    finalization();\n    Finalized();\n    \n    isFinalized = true;\n  }\n\n  /**\n   * @dev Finalization logic. We take the expected sale cap of 314159265\n   * ether and find the difference from the actual minted tokens.\n   * The remaining balance and 40% of total supply are minted \n   * to the Matryx team multisig wallet.\n   */\n  function finalization() internal {\n    // calculate token amount to be created\n    // expected tokens sold\n    uint256 piTokens = 314159265*10**18;\n    // get the difference of sold and expected\n    uint256 tokens = piTokens.sub(token.totalSupply());\n    // issue tokens to the multisig wallet\n    token.mint(wallet, tokens);\n    token.finishMinting();\n    token.transferOwnership(msg.sender);\n    token.releaseTokenTransfer();\n  }\n\n  // send ether to the fund collection wallet\n  // override to create custom fund forwarding mechanisms\n  function forwardFunds() internal {\n    wallet.transfer(msg.value);\n  }\n\n  // Allow the owner to update the presale whitelist\n  function updateWhitelist(address _purchaser, bool _listed) onlyOwner {\n    whitelist[_purchaser] = _listed;\n    Whitelisted(_purchaser, _listed);\n  }\n\n  /**\n   * Allow crowdsale owner to close early or extend the crowdsale.\n   *\n   * This is useful e.g. for a manual soft cap implementation:\n   * - after X amount is reached determine manual closing\n   *\n   * This may put the crowdsale to an invalid state,\n   * but we trust owners know what they are doing.\n   *\n   */\n  function setEndsAt(uint time) onlyOwner {\n    require(now < time);\n\n    endTime = time;\n    EndsAtChanged(endTime);\n  }\n\n\n  // @return true if the presale transaction can buy tokens\n  function validPrePurchase() internal constant returns (bool) {\n    // this asserts that the value is at least the lowest tier \n    // or the address has been whitelisted to purchase with less\n    bool canPrePurchase = tierOnePurchase <= msg.value || whitelist[msg.sender];\n    bool withinCap = weiRaised.add(msg.value) <= presaleCap;\n    return canPrePurchase && withinCap;\n  }\n\n  // @return true if the transaction can buy tokens\n  function validPurchase() internal constant returns (bool) {\n    bool withinPeriod = now >= startTime && now <= endTime;\n    bool withinCap = weiRaised.add(msg.value) <= cap;\n    return withinPeriod && withinCap;\n  }\n\n  // @return true if crowdsale event has ended\n  function hasEnded() public constant returns (bool) {\n    bool capReached = weiRaised >= cap;\n    return now > endTime || capReached;\n  }\n\n  // @return true if within presale time\n  function isPresale() public constant returns (bool) {\n    bool withinPresale = now >= presaleStartTime && now < startTime;\n    return withinPresale;\n  }\n\n}",
  "sourcePath": "/Users/samhessenauer/Documents/Software/git.nosync/MatryxToken/contracts/CrowdSale.sol",
  "compiler": {
    "name": "solc",
    "version": "0.4.24+commit.e67f0147.Emscripten.clang"
  },
  "schemaVersion": "2.0.0",
  "updatedAt": "2018-07-06T00:09:29.002Z"
}