{
  "contractName": "Haltable",
  "abi": [
    {
      "constant": true,
      "inputs": [],
      "name": "owner",
      "outputs": [
        {
          "name": "",
          "type": "address"
        }
      ],
      "payable": false,
      "stateMutability": "view",
      "type": "function"
    },
    {
      "constant": true,
      "inputs": [],
      "name": "halted",
      "outputs": [
        {
          "name": "",
          "type": "bool"
        }
      ],
      "payable": false,
      "stateMutability": "view",
      "type": "function"
    },
    {
      "constant": false,
      "inputs": [
        {
          "name": "newOwner",
          "type": "address"
        }
      ],
      "name": "transferOwnership",
      "outputs": [],
      "payable": false,
      "stateMutability": "nonpayable",
      "type": "function"
    },
    {
      "constant": false,
      "inputs": [],
      "name": "halt",
      "outputs": [],
      "payable": false,
      "stateMutability": "nonpayable",
      "type": "function"
    },
    {
      "constant": false,
      "inputs": [],
      "name": "unhalt",
      "outputs": [],
      "payable": false,
      "stateMutability": "nonpayable",
      "type": "function"
    }
  ],
  "bytecode": "0x6080604052336000806101000a81548173ffffffffffffffffffffffffffffffffffffffff021916908373ffffffffffffffffffffffffffffffffffffffff1602179055506103b1806100536000396000f30060806040526004361061006d576000357c0100000000000000000000000000000000000000000000000000000000900463ffffffff1680635ed7ca5b146100725780638da5cb5b14610089578063b9b8af0b146100e0578063cb3e64fd1461010f578063f2fde38b14610126575b600080fd5b34801561007e57600080fd5b50610087610169565b005b34801561009557600080fd5b5061009e6101e1565b604051808273ffffffffffffffffffffffffffffffffffffffff1673ffffffffffffffffffffffffffffffffffffffff16815260200191505060405180910390f35b3480156100ec57600080fd5b506100f5610206565b604051808215151515815260200191505060405180910390f35b34801561011b57600080fd5b50610124610219565b005b34801561013257600080fd5b50610167600480360381019080803573ffffffffffffffffffffffffffffffffffffffff1690602001909291905050506102ab565b005b6000809054906101000a900473ffffffffffffffffffffffffffffffffffffffff1673ffffffffffffffffffffffffffffffffffffffff163373ffffffffffffffffffffffffffffffffffffffff161415156101c457600080fd5b6001600060146101000a81548160ff021916908315150217905550565b6000809054906101000a900473ffffffffffffffffffffffffffffffffffffffff1681565b600060149054906101000a900460ff1681565b6000809054906101000a900473ffffffffffffffffffffffffffffffffffffffff1673ffffffffffffffffffffffffffffffffffffffff163373ffffffffffffffffffffffffffffffffffffffff1614151561027457600080fd5b600060149054906101000a900460ff16151561028f57600080fd5b60008060146101000a81548160ff021916908315150217905550565b6000809054906101000a900473ffffffffffffffffffffffffffffffffffffffff1673ffffffffffffffffffffffffffffffffffffffff163373ffffffffffffffffffffffffffffffffffffffff1614151561030657600080fd5b600073ffffffffffffffffffffffffffffffffffffffff168173ffffffffffffffffffffffffffffffffffffffff161415151561034257600080fd5b806000806101000a81548173ffffffffffffffffffffffffffffffffffffffff021916908373ffffffffffffffffffffffffffffffffffffffff160217905550505600a165627a7a723058200c2b66643b6cbe4496a84d844b7b107ac2154961b913fbb31002c6441af6c6d90029",
  "source": "\n/**\n * This smart contract code is Copyright 2017 TokenMarket Ltd. For more information see https://tokenmarket.net\n *\n * Licensed under the Apache License, version 2.0: https://github.com/TokenMarketNet/ico/blob/master/LICENSE.txt\n */\n\npragma solidity ^0.4.13;\n\nimport \"./ownership/Ownable.sol\";\n\n/*\n * Haltable\n *\n * Abstract contract that allows children to implement an\n * emergency stop mechanism. Differs from Pausable by causing a throw when in halt mode.\n *\n *\n * Originally envisioned in FirstBlood ICO contract.\n */\ncontract Haltable is Ownable {\n  bool public halted;\n\n  modifier stopInEmergency {\n    //if (halted) throw;\n    require(!halted);\n    _;\n  }\n\n  modifier onlyInEmergency {\n    //if (!halted) throw;\n    require(halted);\n    _;\n  }\n\n  // called by the owner on emergency, triggers stopped state\n  function halt() external onlyOwner {\n    halted = true;\n  }\n\n  // called by the owner on end of emergency, returns to normal state\n  function unhalt() external onlyOwner onlyInEmergency {\n    halted = false;\n  }\n\n}",
  "sourcePath": "/Users/samhessenauer/Documents/Software/git.nosync/MatryxToken/contracts/Haltable.sol",
  "compiler": {
    "name": "solc",
    "version": "0.4.24+commit.e67f0147.Emscripten.clang"
  },
  "schemaVersion": "2.0.0",
  "updatedAt": "2018-07-05T23:55:17.624Z"
}